:1000000071C000008EC000008CC000008AC00000DB
:1000100088C0000086C0000084C0000082C00000CC
:1000200080C000007EC000007CC000007AC00000DC
:1000300078C0000076C0000074C0000072C00000EC
:1000400070C000006EC000006CC000006AC00000FC
:1000500068C0000066C0000064C0000062C000000C
:1000600060C000005EC000005CC000005AC000001C
:1000700058C0000056C0000054C0000052C000002C
:1000800050C000004EC000004CC000004AC000003C
:1000900048C0000046C000006EC0000042C0000022
:1000A00040C000003EC000003CC000003AC000005C
:1000B00038C0000036C0000034C0000032C000006C
:1000C00030C000002EC000002CC000002AC000007C
:1000D00028C0000026C0000024C0000022C000008C
:1000E00020C0000011241FBECFEFD1E2DEBFCDBF84
:1000F00000E00CBF12E0A0E0B2E0EEEBF1E000E0C7
:100100000BBF02C007900D92A432B107D9F722E0CD
:10011000A4E2B2E001C01D92A532B207E1F71ED001
:100120004CC06ECF8FB780688FBF8CE090E090930B
:10013000CD008093CC00E9ECF0E08081886580837D
:10014000EAECF0E08081866080830895E8ECF0E0DE
:10015000908195FFFDCF8093CE000895E3DFE0917D
:10016000240281E08E0F80932402F0E0E050FE4FE5
:100170008081ECDFFFCF1F920F920FB60F921124F8
:100180000BB60F928F93EF93FF93E0912402E3322B
:1001900050F481E08E0F80932402F0E0E050FE4F97
:1001A00080818093CE00FF91EF918F910F900BBED5
:0E01B0000F900FBE0F901F901895F894FFCF80
:1001BE005468697320697320555341525420696EF7
:1001CE00746572727570740000000000000000000B
:0401DE00000000001D
:00000001FF
