S02200005461736B332E325F45787465726E616C5F496E746572727570742E737265630E
S113000071C0000082C0000097C000007DC00000E5
S11300107BC0000079C0000077C0000075C00000FC
S113002073C0000071C000006FC000006DC000000C
S11300306BC0000069C0000067C0000065C000001C
S113004063C0000061C000005FC000005DC000002C
S11300505BC0000059C0000057C0000055C000003C
S113006053C0000051C000004FC000004DC000004C
S11300704BC0000049C0000047C0000045C000005C
S113008043C0000041C000003FC000003DC000006C
S11300903BC0000039C0000037C0000035C000007C
S11300A033C0000031C000002FC000002DC000008C
S11300B02BC0000029C0000027C0000025C000009C
S11300C023C0000021C000001FC000001DC00000AC
S11300D01BC0000019C0000017C0000015C00000BC
S11300E013C0000011241FBECFEFD1E2DEBFCDBF8D
S11300F000E00CBF22E0A0E0B2E001C01D92A530F8
S1130100B207E1F725D056C07BCF1F920F920FB6EE
S11301100F9211248F939F93809101029091020278
S1130120019690930202809301029F918F910F9008
S11301300FBE0F901F9018951F920F920FB60F923B
S11301401124109200020F900FBE0F901F9018956B
S11301508FEF84B985B9E1E8F0E080818460808321
S11301608FE08093690083E08DBB78945FEFE4E8CF
S1130170F0E044E080910002811118C020813181B7
S113018080910302909104022817390799F711828C
S1130190108285B1842785B9208131818091030241
S11301A0909104022817390791F3E4CF813011F7B5
S10B01B055B9E0CFF894FFCF2C
S9030000FC
