S01800005461736B342E325F4C43445F73686F772E7372656393
S1130000EEC000000BC1000009C1000007C10000E0
S113001005C1000003C1000001C10000FFC00000D1
S1130020FDC00000FBC00000F9C00000F7C00000E4
S1130030F5C00000F3C00000F1C00000EFC00000F4
S1130040EDC00000EBC00000E9C00000E7C0000004
S1130050E5C00000E3C00000E1C00000DFC0000014
S1130060DDC00000DBC00000D9C00000D7C0000024
S1130070D5C000000DC20000D1C00000CFC00000F8
S1130080CDC00000CBC00000C9C00000C7C0000044
S1130090C5C00000C3C00000C1C00000BFC0000054
S11300A0BDC00000BBC00000B9C00000B7C0000064
S11300B0B5C00000B3C00000B1C00000AFC0000074
S11300C0ADC00000ABC00000A9C00000A7C0000084
S11300D0A5C00000A3C00000A1C000009FC0000094
S11300E09DC0000000407A10F35A00A0724E180917
S11300F00010A5D4E80000E87648170000E40B548B
S1130100020000CA9A3B000000E1F5050000809659
S11301109800000040420F000000A086010000008B
S1130120102700000000E803000000006400000045
S113013000000A00000000000100000000002C760E
S1130140D888DC674F0823DFC1DFAE59E1B1B79629
S1130150E5E3E453C63AE651997696E8E6C2842686
S1130160EB898C9B62ED407C6FFCEFBC9C9F40F262
S1130170BAA56FA5F490055A2AF75C936B6CF967DE
S11301806DC11BFCE0E40D47FEF520E6B500D0EDA3
S1130190902E0300943577050080841E080000200B
S11301A04E0A000000C80C333333330F986E1283A9
S11301B01141EF8D2114893BE65516CFFEE6DB187D
S11301C0D1844B381BF77C1D901DA4BBE424203242
S11301D084725E228100C9F124ECA1E53D2711243B
S11301E01FBECFEFD1E2DEBFCDBF00E00CBF12E0F7
S11301F0A0E0B2E0EAEDFBE000E00BBF02C0079034
S11302000D92A634B107D9F722E0A6E4B2E001C00A
S11302101D92A63CB207E1F73AD1DDC4F1CE159A9E
S113022000C015980895CF93C82F662311F0179A2C
S113023001C0179816980C9A0B9A0A9A099A119861
S1130240129813981498CC230CF4119AC6FD129AA0
S1130250C5FD139AC4FD149AE2DF119812981398FD
S11302601498C3FD119AC2FD129AC1FD139AC0FDE0
S1130270149AD5DF149A139A129A119ACF91089569
S1130280882311F0179A01C01798169A0C980B98A6
S11302900A980998159A00C0049B02C080E101C025
S11302A080E00399806202998064019980681598BE
S11302B000C0159A00C00499816003998260029974
S11302C08460019988601598089580E0D9DF8823B7
S11302D0E4F384E090E00197F1F780E0D1CF089552
S11302E0CF93C82FF2DF60E08C2F9DDFCF9108956C
S11302F081E0F6CF0895CF93C82FE7DFCA3041F4E9
S1130300803410F080E001C080E48058E9DF0FC041
S1130310803121F460E080EC86DF05C0803519F47B
S113032060E080E880DFD1DF61E08C2F7CDFCF915B
S11303300895CF93DF93EC012196FC0180818823FB
S113034021F0D9DF89918111FCCFDF91CF910895FC
S11303501F93CF93DF93182F0F9A0E9A0D9A0C9A2E
S11303600B9A0A9A099A80E09DE70197F1F7139A8C
S1130370149A55DF80E097E20197F1F750DFC0E867
S1130380D0E0CE010197F1F74ADFCE010197F1F7F2
S1130390149845DF2197F1F788E2A2DF88E0A0DF17
S11303A0A7DF86E09DDF812F9BDFDF91CF911F9137
S11303B00895CF93DF93CDB7DEB764970FB6F89463
S11303C0DEBF0FBECDBF8CE0C3DF5098ECE7F0E09A
S11303D0808183608083808180648083EAE7F0E0A9
S11303E0808186608083808180688083808180644E
S11303F08083808186FDFDCF809178009091790083
S113040077DF86E192E095DF0F2EFAE7EF2EF12CED
S1130410F02D0F2EF8E7CF2ED12CF02D4899FECFDA
S113042094E000E010E0F701808180648083F701AC
S1130430808186FDFCCFF60120813181020F131FDC
S1130440915089F755DF8CE292E073DFB80176951D
S113045067957695679580E090E05FD020E030E086
S113046040EA5BE397D08E010F5F1F4F24E030E03A
S113047046E050E043D1C8015CDFFFE72AE186E0B3
S1130480F15020408040E1F700C00000C7CF91DF69
S11304901F920F920FB60F9211240BB60F922F9347
S11304A03F934F935F938F939F93EF93FF93409169
S11304B07800509179008EE390E0FC01EE0FFF1F6D
S11304C0EA5BFD4F20813181FC01EE0FFF1FE85BE9
S11304D0FD4F31832083019780F750934702409367
S11304E04602ECE7F0E08081836080838081806451
S11304F08083EAE7F0E0808180648083FF91EF915C
S11305009F918F915F914F913F912F910F900BBECF
S11305100F900FBE0F901F901895E89409C097FB99
S11305203EF490958095709561957F4F8F4F9F4FC6
S11305309923A9F0F92F96E9BB279395F69587950A
S113054077956795B795F111F8CFFAF4BB0F11F4CD
S113055060FF1BC06F5F7F4F8F4F9F4F16C0882374
S113056011F096E911C0772321F09EE8872F762FAA
S113057005C0662371F096E8862F70E060E02AF0EB
S11305809A95660F771F881FDAF7880F96958795D7
S113059097F908950BD078C069D028F06ED018F080
S11305A0952309F05AC05FC01124A2C07ED0A0F3E5
S11305B0959FD1F3950F50E0551F629FF001729FF4
S11305C0BB27F00DB11D639FAA27F00DB11DAA1F13
S11305D0649F6627B00DA11D661F829F2227B00D60
S11305E0A11D621F739FB00DA11D621F839FA00DEB
S11305F0611D221F749F3327A00D611D231F849F3B
S1130600600D211D822F762F6A2F11249F57504091
S11306108AF0E1F088234AF0EE0FFF1FBB1F661F2C
S1130620771F881F91505040A9F79E3F510570F0E5
S113063014C05EC05F3FECF3983EDCF3869577957B
S11306406795B795F795E7959F5FC1F7FE2B880FE0
S1130650911D9695879597F9089597F99F6780E876
S113066070E060E008959FEF80EC089500240A9400
S11306701616170618060906089500240A94121679
S11306801306140605060895092E0394000C11F4AC
S1130690882352F0BB0F40F4BF2B11F460FF04C059
S11306A06F5F7F4F8F4F9F4F089557FD9058440FB2
S11306B0551F59F05F3F71F04795880F97FB991FBD
S11306C061F09F3F79F0879508951216130614067A
S11306D0551FF2CF4695F1DF08C016161706180607
S11306E0991FF1CF86957105610508940895E894E2
S11306F0BB2766277727CB0197F90895EF920F93CD
S11307001F93CF93DF93E80147FD02C034E001C09B
S113071034E1042E000C550B57FF03C0519541954D
S11307205109E32E022F242FAE0107D0CE01DF9111
S1130730CF911F910F91EF9008958F929F92AF9256
S1130740BF92CF92DF92EF92FF920F931F93CF93BA
S1130750DF93CDB7DEB729970FB6F894DEBF0FBE8F
S1130760CDBF6A01122FB02E2BE3201720F0FF24F7
S1130770F394F00E02C02CE3F22E0F2D27E0AE010D
S11307804F5F5F4F50D1BC014981842F8970813004
S113079031F0E1FC06C0E0FE06C090E205C09DE237
S11307A003C09BE201C090E05E2D507143FF3CC04A
S11307B0911102C083E001C084E0811718F4212F55
S11307C0281B01C020E051110BC0F601822F30E23A
S11307D0882319F031938150FBCFC20ED11C20E045
S11307E0992329F0D6019C93F60131966F01C60135
S11307F00396E2FE0AC03EE4D6013C9341E411961E
S11308004C93119712963C9306C03EE6F601308352
S113081041E641833283FC01322F40E2332309F461
S113082042C041933150FACF42FF44C0911102C0FB
S113083083E001C084E0811718F4212F281B01C034
S113084020E051110BC0F601822F30E2882319F009
S113085031938150FBCFC20ED11C20E0992329F0A3
S1130860D6019C93F60131966F01C6010396E2FE10
S11308700BC039E4D6013C933EE411963C931197A6
S113088036E412963C9307C039E6F60130833EE61F
S1130890318336E63283FC01322F40E2332319F0F0
S11308A041933150FBCFFC01E20FF11D10828EEF1A
S11308B09FEFA6C021E030E0911102C020E030E0BB
S11308C0161617061CF4FB01319602C0E1E0F0E0B5
S11308D02E0F3F1FBB2021F0EB2DF0E0319602C01C
S11308E0E0E0F0E02E0F3F1FE12FF0E02E173F076E
S11308F01CF4121B212F01C020E08E2D887159F4A5
S1130900F601822F30E2882319F031938150FBCF16
S1130910C20ED11C20E0992329F0D6019C93F60144
S113092031966F0151110BC0F601822F90E3882399
S113093019F091938150FBCFC20ED11C20E00F2DF2
S1130940060F9A81342F307144FF03C0913309F4A8
S11309500150101624F4093018F008E001C001E039
S1130960AB0177FF02C040E050E0FB01E41BF50B54
S1130970A1E0B0E0AC0FBD1FEA0FFB1F8EE2A82E72
S11309804B01801A91080B2D10E011950195110966
S11309904F3FBFEF5B0721F4D601AC9211966D0176
S11309A0641775072CF08416950614F4818101C030
S11309B080E3415051093196D60111967D014017CB
S11309C0510724F0D6018C936701E2CF64177507B1
S11309D039F4963320F4953319F4311101C081E3CD
S11309E0F6018083F701822F90E2882319F0919316
S11309F08150FBCFF701E20FF11D108280E090E0FF
S1130A0029960FB6F894DEBF0FBECDBFDF91CF910C
S1130A101F910F91FF90EF90DF90CF90BF90AF9018
S1130A209F908F900895283008F027E03327DA014B
S1130A30990F311D87FD916000966105710539F4A8
S1130A4032602E5F3D9330E32A95E1F708959F3F8E
S1130A5030F080387105610509F03C5F3C5F3D93DF
S1130A60913008F08068911DDF93CF931F930F930B
S1130A70FF92EF92192F987F9695E92F9695969568
S1130A80E90FFF27E25CFE4F99273327EE24FF246A
S1130A90A701E70105900894079428F4360FE71E90
S1130AA0F81E491F511D660F771F881F991F069452
S1130AB0A1F70590079428F4E70EF81E491F561F66
S1130AC0C11D770F881F991F661F0694A1F7059013
S1130AD0079428F4F80E491F561FC71FD11D880F0D
S1130AE0991F661F771F0694A1F70590079420F4B9
S1130AF0490F561FC71FD81F990F661F771F881FDE
S1130B000694A9F784911095177041F0D695C7956E
S1130B1057954795F794E7941A95C1F7E4EEF0E0FA
S1130B2068941590159135916591959105907FE2A2
S1130B307395E118F10A430B560BC90BD009C0F7A2
S1130B40E10CF11E431F561FC91FD01D7EF47033E4
S1130B5011F48A95E6CFE894015030F0080F0AF4B6
S1130B600027021708F4202F2395022F7A3328F048
S1130B7079E37D932A95E9F710C07D932A9589F648
S1130B80069497956795379517951794E118F10A88
S1130B90430B560BC90BD00998F023957E9173959E
S1130BA07A3308F070E37C932013B8F77E91706178
S1130BB07D9330F0839571E37D9370E32A95E1F79B
S1130BC01124EF90FF900F911F91CF91DF919927FE
S10D0BD087FD90950895F894FFCF77
S1130BDA54657874206F6E206C696E652031006CE0
S1130BEA696E652032005044303A4D6561737572FE
S1130BFA656D656E742053746172740041444320B8
S1130C0A56616C75653A004144435F76616C75655B
S1090C1A3A0028562900EF
S9030000FC
