:10000000EEC00000DEC10000EDC1000007C100002D
:1000100005C1000003C1000001C10000FFC00000D5
:10002000FDC00000FBC00000F9C00000F7C00000E8
:10003000F5C00000F3C00000F1C00000EFC00000F8
:10004000EDC00000EBC00000E9C00000E7C0000008
:10005000E5C00000E3C00000E1C00000DFC0000018
:10006000DDC00000DBC00000D9C00000D7C0000028
:10007000D5C00000D3C00000D1C00000CFC0000038
:10008000CDC00000CBC00000C9C00000C7C0000048
:10009000C5C00000C3C00000C1C00000BFC0000058
:1000A000BDC00000BBC00000B9C00000B7C0000068
:1000B000B5C00000B3C00000B1C00000AFC0000078
:1000C000ADC00000ABC00000A9C00000A7C0000088
:1000D000A5C00000A3C00000A1C000009FC0000098
:1000E0009DC0000000407A10F35A00A0724E18091B
:1000F0000010A5D4E80000E87648170000E40B548F
:10010000020000CA9A3B000000E1F505000080965D
:100110009800000040420F000000A086010000008F
:10012000102700000000E803000000006400000049
:1001300000000A00000000000100000000002C7612
:10014000D888DC674F0823DFC1DFAE59E1B1B7962D
:10015000E5E3E453C63AE651997696E8E6C284268A
:10016000EB898C9B62ED407C6FFCEFBC9C9F40F266
:10017000BAA56FA5F490055A2AF75C936B6CF967E2
:100180006DC11BFCE0E40D47FEF520E6B500D0EDA7
:10019000902E0300943577050080841E080000200F
:1001A0004E0A000000C80C333333330F986E1283AD
:1001B0001141EF8D2114893BE65516CFFEE6DB1881
:1001C000D1844B381BF77C1D901DA4BBE424203246
:1001D00084725E228100C9F124ECA1E53D2711243F
:1001E0001FBECFEFD1E2DEBFCDBF00E00CBF12E0FB
:1001F000A0E0B2E0E4E5F9E000E00BBF02C0079048
:100200000D92A031B107D9F722E0A0E1B2E001C020
:100210001D92A131B207E1F724D19AC3F1CE159A0C
:1002200000C015980895CF93C82F662311F0179A30
:1002300001C0179816980C9A0B9A0A9A099A119865
:10024000129813981498CC230CF4119AC6FD129AA4
:10025000C5FD139AC4FD149AE2DF11981298139801
:100260001498C3FD119AC2FD129AC1FD139AC0FDE4
:10027000149AD5DF149A139A129A119ACF9108956D
:10028000882311F0179A01C01798169A0C980B98AA
:100290000A980998159A00C0049B02C080E101C029
:1002A00080E00399806202998064019980681598C2
:1002B00000C0159A00C00499816003998260029978
:1002C0008460019988601598089580E0D9DF8823BB
:1002D000E4F384E090E00197F1F780E0D1CF089556
:1002E000CF93C82FF2DF60E08C2F9DDFCF91089570
:1002F000611103C08058F4CF08958054F1CF089560
:1003000081E0EECF0895CF93C82FDFDFCA3041F4EC
:10031000803410F080E001C080E48058E1DF0FC03D
:10032000803121F460E080EC7EDF05C0803519F477
:1003300060E080E878DFC9DF61E08C2F74DFCF9167
:100340000895CF93DF93EC012196FC0180818823EF
:1003500021F0D9DF89918111FCCFDF91CF910895F0
:100360001F93CF93DF93182F0F9A0E9A0D9A0C9A22
:100370000B9A0A9A099A80E09DE70197F1F7139A80
:10038000149A4DDF80E097E20197F1F748DFC0E86B
:10039000D0E0CE010197F1F742DFCE010197F1F7EE
:1003A00014983DDF2197F1F788E29ADF88E098DF23
:1003B000A7DF86E095DF812F93DFDF91CF911F913B
:1003C00008951F920F920FB60F9211248F93809170
:1003D00010028F5F809310028F910F900FBE0F90CD
:1003E0001F9018951F920F920FB60F9211248F93A2
:1003F000809110028150809310028F910F900FBE58
:100400000F901F901895CF93DF93CDB7DEB7649709
:100410000FB6F894DEBF0FBECDBF8DE0A1DF70DF59
:1004200060E080E065DF80E092E08BDF8091100289
:100430009E012F5F3F4F41E050E062E070E090E0AE
:100440001AD0CE0101967DDF80911002809585B98A
:1004500064960FB6F894DEBF0FBECDBFDF91CF918B
:1004600008958FEF84B98FE08093690083E08DBB9E
:100470007894C9DFFECFEF920F931F93CF93DF9352
:10048000E80147FD02C034E001C034E1042E000C55
:10049000550B57FF03C0519541955109E32E022F8B
:1004A000242FAE0107D0CE01DF91CF911F910F9184
:1004B000EF9008958F929F92AF92BF92CF92DF926A
:1004C000EF92FF920F931F93CF93DF93CDB7DEB7D9
:1004D00029970FB6F894DEBF0FBECDBF6A01122F69
:1004E000B02E2BE3201720F0FF24F394F00E02C06F
:1004F0002CE3F22E0F2D27E0AE014F5F5F4F50D15E
:10050000BC014981842F8970813031F0E1FC06C043
:10051000E0FE06C090E205C09DE203C09BE201C080
:1005200090E05E2D507143FF3CC0911102C083E00A
:1005300001C084E0811718F4212F281B01C020E09E
:1005400051110BC0F601822F30E2882319F031934C
:100550008150FBCFC20ED11C20E0992329F0D60197
:100560009C93F60131966F01C6010396E2FE0AC024
:100570003EE4D6013C9341E411964C9311971296B8
:100580003C9306C03EE6F601308341E64183328368
:10059000FC01322F40E2332309F442C04193315031
:1005A000FACF42FF44C0911102C083E001C084E051
:1005B000811718F4212F281B01C020E051110BC016
:1005C000F601822F30E2882319F031938150FBCF5E
:1005D000C20ED11C20E0992329F0D6019C93F6018C
:1005E00031966F01C6010396E2FE0BC039E4D601D5
:1005F0003C933EE411963C93119736E412963C935B
:1006000007C039E6F60130833EE6318336E63283B1
:10061000FC01322F40E2332319F041933150FBCFDC
:10062000FC01E20FF11D10828EEF9FEFA6C021E0CA
:1006300030E0911102C020E030E0161617061CF4DD
:10064000FB01319602C0E1E0F0E02E0F3F1FBB201E
:1006500021F0EB2DF0E0319602C0E0E0F0E02E0F4B
:100660003F1FE12FF0E02E173F071CF4121B212F34
:1006700001C020E08E2D887159F4F601822F30E2FE
:10068000882319F031938150FBCFC20ED11C20E09A
:10069000992329F0D6019C93F60131966F015111EF
:1006A0000BC0F601822F90E3882319F091938150BB
:1006B000FBCFC20ED11C20E00F2D060F9A81342FE4
:1006C000307144FF03C0913309F40150101624F433
:1006D000093018F008E001C001E0AB0177FF02C06B
:1006E00040E050E0FB01E41BF50BA1E0B0E0AC0FF3
:1006F000BD1FEA0FFB1F8EE2A82E4B01801A910846
:100700000B2D10E01195019511094F3FBFEF5B07CD
:1007100021F4D601AC9211966D01641775072CF087
:100720008416950614F4818101C080E3415051097B
:100730003196D60111967D014017510724F0D6015C
:100740008C936701E2CF6417750739F4963320F470
:10075000953319F4311101C081E3F6018083F7016B
:10076000822F90E2882319F091938150FBCFF701FB
:10077000E20FF11D108280E090E029960FB6F89408
:10078000DEBF0FBECDBFDF91CF911F910F91FF90C4
:10079000EF90DF90CF90BF90AF909F908F90089593
:1007A000283008F027E03327DA01990F311D87FD43
:1007B000916000966105710539F432602E5F3D93BA
:1007C00030E32A95E1F708959F3F30F080387105B6
:1007D000610509F03C5F3C5F3D93913008F0806813
:1007E000911DDF93CF931F930F93FF92EF92192FD9
:1007F000987F9695E92F96959695E90FFF27E25CED
:10080000FE4F99273327EE24FF24A701E701059027
:100810000894079428F4360FE71EF81E491F511D4F
:10082000660F771F881F991F0694A1F705900794FC
:1008300028F4E70EF81E491F561FC11D770F881FA9
:10084000991F661F0694A1F70590079428F4F80EE7
:10085000491F561FC71FD11D880F991F661F771F7D
:100860000694A1F70590079420F4490F561FC71F5F
:10087000D81F990F661F771F881F0694A9F78491C8
:100880001095177041F0D695C79557954795F794F1
:10089000E7941A95C1F7E4EEF0E06894159015918D
:1008A00035916591959105907FE27395E118F10A74
:1008B000430B560BC90BD009C0F7E10CF11E431FC7
:1008C000561FC91FD01D7EF4703311F48A95E6CFF0
:1008D000E894015030F0080F0AF40027021708F4DA
:1008E000202F2395022F7A3328F079E37D932A95E0
:1008F000E9F710C07D932A9589F606949795679538
:10090000379517951794E118F10A430B560BC90B4D
:10091000D00998F023957E9173957A3308F070E3AF
:100920007C932013B8F77E9170617D9330F08395AE
:1009300071E37D9370E32A95E1F71124EF90FF9026
:100940000F911F91CF91DF91992787FD9095089581
:04095000F894FFCF49
:10095400434F554E5445525F56414C55453A20003D
:00000001FF
