:1000000071C0000081C000007FC000007DC0000002
:100010007BC0000079C0000077C0000075C0000000
:1000200073C0000071C000006FC000006DC0000010
:100030006BC0000069C0000067C0000065C0000020
:1000400063C000007FC000005FC000005DC0000012
:100050005BC0000059C0000057C0000055C0000040
:1000600053C0000051C000004FC000004DC0000050
:100070004BC0000049C0000047C0000045C0000060
:1000800043C0000041C000003FC000003DC0000070
:100090003BC0000039C0000037C0000035C0000080
:1000A00033C0000031C000002FC000002DC0000090
:1000B0002BC0000029C0000027C0000025C00000A0
:1000C00023C0000021C000001FC000001DC00000B0
:1000D0001BC0000019C0000017C0000015C00000C0
:1000E00013C0000011241FBECFEFD1E2DEBFCDBF91
:1000F00000E00CBF22E0A0E0B2E001C01D92A13000
:10010000B207E1F702D062C07BCF559AE1E8F0E098
:1001100080818B618083EFE6F0E080818260808364
:1001200087E499E09093870080938600789481E03B
:10013000189903C080930002FBCF1999F9CF109250
:100140000002F6CF1F920F920FB60F9211242F9339
:100150008F939F9380910002811117C08091860038
:10016000909187008734994041F45D9A8DE790E043
:10017000909387008093860021C05D9887E499E082
:10018000909387008093860019C081E080930002DD
:1001900080918600909187008930994041F45D9A62
:1001A0008BEB90E0909387008093860007C05D986A
:1001B00089E099E090938700809386009F918F91CA
:1001C0002F910F900FBE0F901F901895F894FFCFAE
:00000001FF
